:020000040800F2
:1000000078060020CD010008DF030008D7030008B0
:10001000DB0300087F020008A107000800000000C1
:10002000000000000000000000000000250400089F
:100030008302000800000000E10300083905000801
:10004000E7010008E7010008E7010008E7010008F0
:10005000E7010008E7010008E7010008E7010008E0
:10006000E7010008E7010008E7010008E7010008D0
:10007000E7010008E7010008E7010008E7010008C0
:10008000E7010008E7010008E7010008E7010008B0
:10009000E7010008E7010008E7010008E7010008A0
:1000A000E7010008E7010008E7010008E701000890
:1000B000E7010008E7010008E7010008E701000880
:1000C000E7010008E7010008E7010008E701000870
:1000D000E7010008E7010008E7010008E701000860
:1000E000E7010008E7010008E7010008E701000850
:1000F000E7010008E7010008E7010008E701000840
:10010000E7010008E7010008E7010008E70100082F
:10011000E7010008E7010008E7010008E70100081F
:10012000E7010008E7010008E7010008E70100080F
:1001300000F002F800F03AF80AA090E8000C8244BF
:100140008344AAF10107DA4501D100F02FF8AFF29C
:10015000090EBAE80F0013F0010F18BFFB1A43F0A5
:10016000010318473007000050070000103A24BF71
:1001700078C878C1FAD8520724BF30C830C144BF0C
:1001800004680C607047000000230024002500264E
:10019000103A28BF78C1FBD8520728BF30C148BFEA
:1001A0000B6070471FB51FBD10B510BD00F031F8D2
:1001B0001146FFF7F7FF00F03DFB00F04FF803B4E6
:1001C000FFF7F2FF03BC00F053F800000948804736
:1001D00009480047FEE7FEE7FEE7FEE7FEE7FEE729
:1001E000FEE7FEE7FEE7FEE704480549054A064B41
:1001F000704700003D05000831010008780000202C
:1002000078060020780200207802002070477047AE
:100210007047754600F028F8AE460500694653461B
:1002200020F00700854618B020B5FFF7DDFFBDE8D8
:1002300020404FF000064FF000074FF000084FF04D
:10024000000B21F00701AC46ACE8C009ACE8C009DE
:10025000ACE8C009ACE8C0098D4670470446AFF36E
:1002600000802046FFF7ABFF0048704718000020D1
:1002700001491820ABBEFEE726000200704700BF10
:10028000FEE770472DE9F0410246002500260020D8
:1002900000230024002791F803C00CF00F0591F80B
:1002A00003C00CF0100CBCF1000F03D091F802C099
:1002B0004CEA050591F800C0BCF1000F31D014687C
:1002C00000202BE04FF0010C0CFA00F3B1F800C055
:1002D0000CEA03069E4220D183004FF00F0C0CFA6B
:1002E00003F7BC4305FA03FC4CEA040491F803C08D
:1002F000BCF1280F06D14FF0010C0CFA00FCC2F83B
:1003000014C00AE091F803C0BCF1480F05D14FF0CA
:10031000010C0CFA00FCC2F810C0401C0828D1D314
:100320001460B1F800C0BCF1FF0F34DD5468002048
:100330002EE000F1080C4FF0010808FA0CF3B1F8B8
:1003400000C00CEA03069E4221D183004FF00F0C3F
:100350000CFA03F7BC4305FA03FC4CEA040491F8D9
:1003600003C0BCF1280F05D100F1080C08FA0CF805
:10037000C2F8148091F803C0BCF1480F07D100F116
:10038000080C4FF0010808FA0CF8C2F81080401C65
:100390000828CED35460BDE8F08170B504465A34C5
:1003A0004FF47A606043B42190FBF1F000F57A7568
:1003B000A9B24FF0804000F09EF970BD10B5232126
:1003C00049F63F4000F0EAF840F6B8314FF080407F
:1003D00000F091F910BD00BFFEE700BFFEE77047D7
:1003E0007047000029B1064AD2690243044BDA6122
:1003F00004E0034AD2698243014BDA61704700008E
:100400000010024029B1064A92690243044B9A61E6
:1004100004E0034A92698243014B9A6170470000ED
:1004200000100240704710B500F002F810BD000047
:100430000CB50020019000903348006840F48030F3
:100440003149086000BF3048006800F40030009077
:100450000198401C0190009818B90198B0F5A06F60
:10046000F1D12948006800F4003010B1012000905B
:1004700001E0002000900098012843D12348006843
:1004800040F01000214908600846006820F0030091
:1004900008600846006840F0020008601A4840689A
:1004A000194948600846406848600846406840F47A
:1004B000806048600846406820F47C104860084628
:1004C000406840F4E81048600846006840F08070DA
:1004D000086000BF0C48006800F000700028F9D0E8
:1004E0000948406820F00300074948600846406812
:1004F00040F00200486000BF0348406800F00C0074
:100500000828F9D10CBD0000001002400020024074
:10051000042808D14FF0E021096941F004014FF0AF
:10052000E022116107E04FF0E021096921F00401A8
:100530004FF0E022116170477047000010B513487A
:10054000006840F001001149086008464068104901
:1005500008400E494860084600680E4908400B49AB
:1005600008600846006820F480200860084640685B
:1005700020F4FE0048604FF41F008860FFF753FF2F
:100580004FF000600449086010BD000000100240F8
:100590000000FFF8FFFFF6FE08ED00E030B589B07F
:1005A00005460C4601210846FFF71CFF01210420E7
:1005B000FFF728FF18208DF823000220ADF8200057
:1005C00001208DF8220008A91448FFF75BFE0121E5
:1005D0000846FFF707FFADF81850ADF814400020AB
:1005E000ADF8160005A94FF0804000F087F87020A4
:1005F000ADF804000120ADF806000220ADF80C00B3
:1006000001A9400700F018F80821C80600F066F8B4
:100610000121880700F004F809B030BD000801404E
:1006200021B1028842F00102028004E002884FF604
:10063000FE731A400280704770B500240022002328
:10064000058C4FF6EF7635400584028C8388048B49
:1006500048F6FF752C404FF6FF452C400D884FF6AD
:10066000FF7606EA05252C434FF6DF752A400D89F3
:1006700006EA05152A434D8806EA05152A43154D55
:10068000A84202D0144DA8421DD14FF67F752A40D2
:100690004D894FF6FF7606EA05152A434FF6BF75DA
:1006A0002A408D8806EA05152A434FF6FF352B4070
:1006B0004FF2FF752B408D8906EA85052B43CD89C6
:1006C00006EA85052B4383800483CD880587028451
:1006D00070BD0000002C0140003401400A4600219A
:1006E000018B4FF2FF7319404FF6FF7303EA0223A9
:1006F0001943018370470187704700000022028878
:100700001D4B98420ED01D4B98420BD0B0F1804F3C
:1007100008D01B4B984205D01A4B984202D01A4B76
:10072000984204D14FF68F731A404B881A43174BE7
:10073000984207D0164B984204D04FF6FF431A4018
:10074000CB881A4302808B8883850B8803850A4BEC
:1007500098420BD0094B984208D00E4B984205D0D6
:100760000D4B984202D00D4B984201D10B7A038673
:100770000123838270470000002C014000340140B7
:100780000004004000080040000C00400010004041
:100790000014004000400140004401400048014076
:1007A00000BFFEE710B56FF00400FFF7B1FE0A4886
:1007B00000680A49B0FBF1F0094908700846007862
:1007C00000EB4001C1EBC0104FF6FF7101EAC00021
:1007D0000449088010BD00000000002000127A00CB
:1007E00014000020160000200146114A12884A43D6
:1007F0004FF0E0235A6100229A611A46126942F0D2
:1008000001021A6100BF4FF0E022106900F00102FE
:100810001AB100F48032002AF5D04FF0E0221269BC
:1008200022F001024FF0E0231A6100229A61704722
:1008300016000020FFF7B6FFFFF7C0FDFFF7BEFD73
:100840000020FFF7AAFD24E04FF47A70FFF7CCFFF9
:100850006FF05900FFF7A1FD4FF47A70FFF7C4FF66
:100860006FF02C00FFF799FD4FF47A70FFF7BCFF93
:100870000020FFF792FD4FF47A70FFF7B5FF2D20AF
:10088000FFF78BFD4FF47A70FFF7AEFF5A20FFF7AA
:1008900084FDD9E7B408000800000020180000001B
:1008A0006C010008CC080008180000206006000059
:1008B0008801000800A24A040000000000000000B7
:0C08C00001020304060708090000000004
:04000005080001CD21
:00000001FF
